8=FIX.4.2|9=71|35=A|34=1|49=BANZAI|52=20230117-15:24:44.365|56=EXEC|98=0|108=30|141=Y|10=005|