8=FIX.4.2|9=94|35=W|34=2|49=EXEC|52=20230117-15:53:47.495|56=BANZAI|55=AAPL|262=asd-1|268=1|269=0|270=123.45|10=058|