8=FIX.4.2|9=71|35=A|34=1|49=BANZAI|52=20230115-11:14:27.237|56=EXEC|98=0|108=30|141=Y|10=253|8=FIX.4.2|9=53|35=0|34=2|49=BANZAI|52=20230115-11:14:57.983|56=EXEC|10=178|8=FIX.4.2|9=53|35=0|34=3|49=BANZAI|52=20230115-11:15:27.985|56=EXEC|10=179|8=FIX.4.2|9=53|35=0|34=4|49=BANZAI|52=20230115-11:15:57.987|56=EXEC|10=185|8=FIX.4.2|9=53|35=0|34=5|49=BANZAI|52=20230115-11:16:27.990|56=EXEC|10=178|8=FIX.4.2|9=53|35=0|34=6|49=BANZAI|52=20230115-11:16:58.222|56=EXEC|10=171|8=FIX.4.2|9=53|35=0|34=7|49=BANZAI|52=20230115-11:17:28.213|56=EXEC|10=170|8=FIX.4.2|9=53|35=0|34=8|49=BANZAI|52=20230115-11:17:58.217|56=EXEC|10=178|8=FIX.4.2|9=53|35=0|34=9|49=BANZAI|52=20230115-11:18:28.218|56=EXEC|10=178|8=FIX.4.2|9=54|35=0|34=10|49=BANZAI|52=20230115-11:18:58.221|56=EXEC|10=216|8=FIX.4.2|9=54|35=0|34=11|49=BANZAI|52=20230115-11:19:28.217|56=EXEC|10=220|